{
  "address": "0xbdAdFf16695E3a6431FE2CEA1d7d908dEAd4251d",
  "abi": [
    {
      "inputs": [
        {
          "internalType": "uint256",
          "name": "_lockTime",
          "type": "uint256"
        },
        {
          "internalType": "address",
          "name": "_dataFeeedAddr",
          "type": "address"
        }
      ],
      "stateMutability": "nonpayable",
      "type": "constructor"
    },
    {
      "anonymous": false,
      "inputs": [
        {
          "indexed": false,
          "internalType": "uint256",
          "name": "",
          "type": "uint256"
        }
      ],
      "name": "FundWithDrawByOwner",
      "type": "event"
    },
    {
      "anonymous": false,
      "inputs": [
        {
          "indexed": false,
          "internalType": "address",
          "name": "",
          "type": "address"
        },
        {
          "indexed": false,
          "internalType": "uint256",
          "name": "",
          "type": "uint256"
        }
      ],
      "name": "RefundByFunder",
      "type": "event"
    },
    {
      "inputs": [],
      "name": "dataFeed",
      "outputs": [
        {
          "internalType": "contract AggregatorV3Interface",
          "name": "",
          "type": "address"
        }
      ],
      "stateMutability": "view",
      "type": "function"
    },
    {
      "inputs": [],
      "name": "erc20Addr",
      "outputs": [
        {
          "internalType": "address",
          "name": "",
          "type": "address"
        }
      ],
      "stateMutability": "view",
      "type": "function"
    },
    {
      "inputs": [],
      "name": "fund",
      "outputs": [],
      "stateMutability": "payable",
      "type": "function"
    },
    {
      "inputs": [
        {
          "internalType": "address",
          "name": "",
          "type": "address"
        }
      ],
      "name": "fundersToAmount",
      "outputs": [
        {
          "internalType": "uint256",
          "name": "",
          "type": "uint256"
        }
      ],
      "stateMutability": "view",
      "type": "function"
    },
    {
      "inputs": [],
      "name": "getChainlinkDataFeedLatestAnswer",
      "outputs": [
        {
          "internalType": "int256",
          "name": "",
          "type": "int256"
        }
      ],
      "stateMutability": "view",
      "type": "function"
    },
    {
      "inputs": [],
      "name": "getFund",
      "outputs": [],
      "stateMutability": "nonpayable",
      "type": "function"
    },
    {
      "inputs": [],
      "name": "getFundSuccess",
      "outputs": [
        {
          "internalType": "bool",
          "name": "",
          "type": "bool"
        }
      ],
      "stateMutability": "view",
      "type": "function"
    },
    {
      "inputs": [],
      "name": "owner",
      "outputs": [
        {
          "internalType": "address",
          "name": "",
          "type": "address"
        }
      ],
      "stateMutability": "view",
      "type": "function"
    },
    {
      "inputs": [],
      "name": "refund",
      "outputs": [],
      "stateMutability": "nonpayable",
      "type": "function"
    },
    {
      "inputs": [
        {
          "internalType": "address",
          "name": "_erc20Addr",
          "type": "address"
        }
      ],
      "name": "setErc20Addr",
      "outputs": [],
      "stateMutability": "nonpayable",
      "type": "function"
    },
    {
      "inputs": [
        {
          "internalType": "address",
          "name": "funder",
          "type": "address"
        },
        {
          "internalType": "uint256",
          "name": "value",
          "type": "uint256"
        }
      ],
      "name": "setFunderToAmount",
      "outputs": [],
      "stateMutability": "nonpayable",
      "type": "function"
    },
    {
      "inputs": [
        {
          "internalType": "address",
          "name": "newOwner",
          "type": "address"
        }
      ],
      "name": "transferOwnership",
      "outputs": [],
      "stateMutability": "nonpayable",
      "type": "function"
    }
  ],
  "transactionHash": "0x97bed2997c050b5c5df365fd08d11e54eee8ee318cc66f67a6a4af1c6fe60e11",
  "args": [
    180,
    "0x694AA1769357215DE4FAC081bf1f309aDC325306"
  ],
  "numDeployments": 2,
  "solcInputHash": "76669d29e52e074e5a2fc2b7e324f38c",
  "bytecode": "0x608060405234801561001057600080fd5b506040516116f23803806116f283398181016040528101906100329190610162565b80600160006101000a81548173ffffffffffffffffffffffffffffffffffffffff021916908373ffffffffffffffffffffffffffffffffffffffff16021790555033600260006101000a81548173ffffffffffffffffffffffffffffffffffffffff021916908373ffffffffffffffffffffffffffffffffffffffff160217905550426004819055508160058190555050506101a2565b600080fd5b6000819050919050565b6100e1816100ce565b81146100ec57600080fd5b50565b6000815190506100fe816100d8565b92915050565b600073ffffffffffffffffffffffffffffffffffffffff82169050919050565b600061012f82610104565b9050919050565b61013f81610124565b811461014a57600080fd5b50565b60008151905061015c81610136565b92915050565b60008060408385031215610179576101786100c9565b5b6000610187858286016100ef565b92505060206101988582860161014d565b9150509250929050565b611541806101b16000396000f3fe6080604052600436106100a75760003560e01c80639f883a05116100645780639f883a0514610184578063b60d4288146101c1578063bea4dfb5146101cb578063d39cf006146101f6578063da4658e01461021f578063f2fde38b1461024a576100a7565b806313ffff01146100ac578063317e3ce0146100d5578063590e1ae3146101005780638da5cb5b146101175780638edd6eb6146101425780639e42ff9014610159575b600080fd5b3480156100b857600080fd5b506100d360048036038101906100ce9190610c95565b610273565b005b3480156100e157600080fd5b506100ea610347565b6040516100f79190610cd1565b60405180910390f35b34801561010c57600080fd5b5061011561036d565b005b34801561012357600080fd5b5061012c61063b565b6040516101399190610cd1565b60405180910390f35b34801561014e57600080fd5b50610157610661565b005b34801561016557600080fd5b5061016e61087c565b60405161017b9190610d4b565b60405180910390f35b34801561019057600080fd5b506101ab60048036038101906101a69190610c95565b6108a2565b6040516101b89190610d7f565b60405180910390f35b6101c96108ba565b005b3480156101d757600080fd5b506101e06109a3565b6040516101ed9190610db3565b60405180910390f35b34801561020257600080fd5b5061021d60048036038101906102189190610dfa565b610a44565b005b34801561022b57600080fd5b50610234610b1b565b6040516102419190610e55565b60405180910390f35b34801561025657600080fd5b50610271600480360381019061026c9190610c95565b610b2e565b005b600260009054906101000a900473ffffffffffffffffffffffffffffffffffffffff1673ffffffffffffffffffffffffffffffffffffffff163373ffffffffffffffffffffffffffffffffffffffff1614610303576040517f08c379a00000000000000000000000000000000000000000000000000000000081526004016102fa90610ef3565b60405180910390fd5b80600360006101000a81548173ffffffffffffffffffffffffffffffffffffffff021916908373ffffffffffffffffffffffffffffffffffffffff16021790555050565b600360009054906101000a900473ffffffffffffffffffffffffffffffffffffffff1681565b60055460045461037d9190610f42565b4210156103bf576040517f08c379a00000000000000000000000000000000000000000000000000000000081526004016103b690610fc2565b60405180910390fd5b680821ab0d44149800006103d247610c02565b10610412576040517f08c379a00000000000000000000000000000000000000000000000000000000081526004016104099061102e565b60405180910390fd5b60008060003373ffffffffffffffffffffffffffffffffffffffff1673ffffffffffffffffffffffffffffffffffffffff1681526020019081526020016000205403610493576040517f08c379a000000000000000000000000000000000000000000000000000000000815260040161048a9061109a565b60405180910390fd5b60008060003373ffffffffffffffffffffffffffffffffffffffff1673ffffffffffffffffffffffffffffffffffffffff1681526020019081526020016000208190555060003373ffffffffffffffffffffffffffffffffffffffff166000803373ffffffffffffffffffffffffffffffffffffffff1673ffffffffffffffffffffffffffffffffffffffff1681526020019081526020016000205460405161053b906110eb565b60006040518083038185875af1925050503d8060008114610578576040519150601f19603f3d011682016040523d82523d6000602084013e61057d565b606091505b50509050806105c1576040517f08c379a00000000000000000000000000000000000000000000000000000000081526004016105b89061114c565b60405180910390fd5b7fc69be1ee5ac2aec580fb0927d8d940555d6f0a7bd11eed94b5b597056113da5f336000803373ffffffffffffffffffffffffffffffffffffffff1673ffffffffffffffffffffffffffffffffffffffff1681526020019081526020016000205460405161063092919061116c565b60405180910390a150565b600260009054906101000a900473ffffffffffffffffffffffffffffffffffffffff1681565b6005546004546106719190610f42565b4210156106b3576040517f08c379a00000000000000000000000000000000000000000000000000000000081526004016106aa90610fc2565b60405180910390fd5b600260009054906101000a900473ffffffffffffffffffffffffffffffffffffffff1673ffffffffffffffffffffffffffffffffffffffff163373ffffffffffffffffffffffffffffffffffffffff1614610743576040517f08c379a000000000000000000000000000000000000000000000000000000000815260040161073a90610ef3565b60405180910390fd5b680821ab0d441498000061075647610c02565b1015610797576040517f08c379a000000000000000000000000000000000000000000000000000000000815260040161078e906111e1565b60405180910390fd5b600047905060008060003373ffffffffffffffffffffffffffffffffffffffff1673ffffffffffffffffffffffffffffffffffffffff168152602001908152602001600020819055503373ffffffffffffffffffffffffffffffffffffffff166108fc479081150290604051600060405180830381858888f19350505050158015610826573d6000803e3d6000fd5b506001600360146101000a81548160ff0219169083151502179055507fbaaa2675405b764129c821b3d973d1acdc3e471fa80222e6717a0f089f5878fc816040516108719190610d7f565b60405180910390a150565b600160009054906101000a900473ffffffffffffffffffffffffffffffffffffffff1681565b60006020528060005260406000206000915090505481565b670de0b6b3a76400006108cc34610c02565b101561090d576040517f08c379a00000000000000000000000000000000000000000000000000000000081526004016109049061124d565b60405180910390fd5b60055460045461091d9190610f42565b421061095e576040517f08c379a0000000000000000000000000000000000000000000000000000000008152600401610955906112df565b60405180910390fd5b346000803373ffffffffffffffffffffffffffffffffffffffff1673ffffffffffffffffffffffffffffffffffffffff16815260200190815260200160002081905550565b600080600160009054906101000a900473ffffffffffffffffffffffffffffffffffffffff1673ffffffffffffffffffffffffffffffffffffffff1663feaf968c6040518163ffffffff1660e01b815260040160a060405180830381865afa158015610a13573d6000803e3d6000fd5b505050506040513d601f19601f82011682018060405250810190610a379190611382565b5050509150508091505090565b600360009054906101000a900473ffffffffffffffffffffffffffffffffffffffff1673ffffffffffffffffffffffffffffffffffffffff163373ffffffffffffffffffffffffffffffffffffffff1614610ad4576040517f08c379a0000000000000000000000000000000000000000000000000000000008152600401610acb90611449565b60405180910390fd5b806000808473ffffffffffffffffffffffffffffffffffffffff1673ffffffffffffffffffffffffffffffffffffffff168152602001908152602001600020819055505050565b600360149054906101000a900460ff1681565b600260009054906101000a900473ffffffffffffffffffffffffffffffffffffffff1673ffffffffffffffffffffffffffffffffffffffff163373ffffffffffffffffffffffffffffffffffffffff1614610bbe576040517f08c379a0000000000000000000000000000000000000000000000000000000008152600401610bb590610ef3565b60405180910390fd5b80600260006101000a81548173ffffffffffffffffffffffffffffffffffffffff021916908373ffffffffffffffffffffffffffffffffffffffff16021790555050565b600080610c0d6109a3565b90506305f5e1008184610c209190611469565b610c2a91906114da565b915050919050565b600080fd5b600073ffffffffffffffffffffffffffffffffffffffff82169050919050565b6000610c6282610c37565b9050919050565b610c7281610c57565b8114610c7d57600080fd5b50565b600081359050610c8f81610c69565b92915050565b600060208284031215610cab57610caa610c32565b5b6000610cb984828501610c80565b91505092915050565b610ccb81610c57565b82525050565b6000602082019050610ce66000830184610cc2565b92915050565b6000819050919050565b6000610d11610d0c610d0784610c37565b610cec565b610c37565b9050919050565b6000610d2382610cf6565b9050919050565b6000610d3582610d18565b9050919050565b610d4581610d2a565b82525050565b6000602082019050610d606000830184610d3c565b92915050565b6000819050919050565b610d7981610d66565b82525050565b6000602082019050610d946000830184610d70565b92915050565b6000819050919050565b610dad81610d9a565b82525050565b6000602082019050610dc86000830184610da4565b92915050565b610dd781610d66565b8114610de257600080fd5b50565b600081359050610df481610dce565b92915050565b60008060408385031215610e1157610e10610c32565b5b6000610e1f85828601610c80565b9250506020610e3085828601610de5565b9150509250929050565b60008115159050919050565b610e4f81610e3a565b82525050565b6000602082019050610e6a6000830184610e46565b92915050565b600082825260208201905092915050565b7f4f6e6c79207468652063757272656e74204f776e65722063616e20646f20746860008201527f6973210000000000000000000000000000000000000000000000000000000000602082015250565b6000610edd602383610e70565b9150610ee882610e81565b604082019050919050565b60006020820190508181036000830152610f0c81610ed0565b9050919050565b7f4e487b7100000000000000000000000000000000000000000000000000000000600052601160045260246000fd5b6000610f4d82610d66565b9150610f5883610d66565b9250828201905080821115610f7057610f6f610f13565b5b92915050565b7f57696e646f77206973206e6f7420636c6f736564000000000000000000000000600082015250565b6000610fac601483610e70565b9150610fb782610f76565b602082019050919050565b60006020820190508181036000830152610fdb81610f9f565b9050919050565b7f5461726765742069732020726561636865640000000000000000000000000000600082015250565b6000611018601283610e70565b915061102382610fe2565b602082019050919050565b600060208201905081810360008301526110478161100b565b9050919050565b7f7468657265206973206e6f742066756e6420666f7220796f7500000000000000600082015250565b6000611084601983610e70565b915061108f8261104e565b602082019050919050565b600060208201905081810360008301526110b381611077565b9050919050565b600081905092915050565b50565b60006110d56000836110ba565b91506110e0826110c5565b600082019050919050565b60006110f6826110c8565b9150819050919050565b7f7472616e73666572207478206661696c65640000000000000000000000000000600082015250565b6000611136601283610e70565b915061114182611100565b602082019050919050565b6000602082019050818103600083015261116581611129565b9050919050565b60006040820190506111816000830185610cc2565b61118e6020830184610d70565b9392505050565b7f546172676574206973206e6f7420726561636865640000000000000000000000600082015250565b60006111cb601583610e70565b91506111d682611195565b602082019050919050565b600060208201905081810360008301526111fa816111be565b9050919050565b7f53656e64206d6f72652045544800000000000000000000000000000000000000600082015250565b6000611237600d83610e70565b915061124282611201565b602082019050919050565b600060208201905081810360008301526112668161122a565b9050919050565b7f43616e6e6f742066756e6420647572696e67206c6f636b696e6720706572696f60008201527f6400000000000000000000000000000000000000000000000000000000000000602082015250565b60006112c9602183610e70565b91506112d48261126d565b604082019050919050565b600060208201905081810360008301526112f8816112bc565b9050919050565b600069ffffffffffffffffffff82169050919050565b61131e816112ff565b811461132957600080fd5b50565b60008151905061133b81611315565b92915050565b61134a81610d9a565b811461135557600080fd5b50565b60008151905061136781611341565b92915050565b60008151905061137c81610dce565b92915050565b600080600080600060a0868803121561139e5761139d610c32565b5b60006113ac8882890161132c565b95505060206113bd88828901611358565b94505060406113ce8882890161136d565b93505060606113df8882890161136d565b92505060806113f08882890161132c565b9150509295509295909350565b7f43616c6c2066726f6d206f7468657220636f6e74726163740000000000000000600082015250565b6000611433601883610e70565b915061143e826113fd565b602082019050919050565b6000602082019050818103600083015261146281611426565b9050919050565b600061147482610d66565b915061147f83610d66565b925082820261148d81610d66565b915082820484148315176114a4576114a3610f13565b5b5092915050565b7f4e487b7100000000000000000000000000000000000000000000000000000000600052601260045260246000fd5b60006114e582610d66565b91506114f083610d66565b925082611500576114ff6114ab565b5b82820490509291505056fea26469706673582212206f07dd6c57a38e1dbd1a76a4cec4d8cfffbfaecd984af9f16ac5aeebc47b689c64736f6c634300081c0033",
  "devdoc": {
    "kind": "dev",
    "methods": {},
    "version": 1
  },
  "userdoc": {
    "kind": "user",
    "methods": {},
    "version": 1
  },
  "storageLayout": {
    "storage": [
      {
        "astId": 53,
        "contract": "contracts/FundMe.sol:FundMe",
        "label": "fundersToAmount",
        "offset": 0,
        "slot": "0",
        "type": "t_mapping(t_address,t_uint256)"
      },
      {
        "astId": 63,
        "contract": "contracts/FundMe.sol:FundMe",
        "label": "dataFeed",
        "offset": 0,
        "slot": "1",
        "type": "t_contract(AggregatorV3Interface)45"
      },
      {
        "astId": 72,
        "contract": "contracts/FundMe.sol:FundMe",
        "label": "owner",
        "offset": 0,
        "slot": "2",
        "type": "t_address"
      },
      {
        "astId": 74,
        "contract": "contracts/FundMe.sol:FundMe",
        "label": "erc20Addr",
        "offset": 0,
        "slot": "3",
        "type": "t_address"
      },
      {
        "astId": 76,
        "contract": "contracts/FundMe.sol:FundMe",
        "label": "getFundSuccess",
        "offset": 20,
        "slot": "3",
        "type": "t_bool"
      },
      {
        "astId": 78,
        "contract": "contracts/FundMe.sol:FundMe",
        "label": "startTime",
        "offset": 0,
        "slot": "4",
        "type": "t_uint256"
      },
      {
        "astId": 80,
        "contract": "contracts/FundMe.sol:FundMe",
        "label": "lockTime",
        "offset": 0,
        "slot": "5",
        "type": "t_uint256"
      }
    ],
    "types": {
      "t_address": {
        "encoding": "inplace",
        "label": "address",
        "numberOfBytes": "20"
      },
      "t_bool": {
        "encoding": "inplace",
        "label": "bool",
        "numberOfBytes": "1"
      },
      "t_contract(AggregatorV3Interface)45": {
        "encoding": "inplace",
        "label": "contract AggregatorV3Interface",
        "numberOfBytes": "20"
      },
      "t_mapping(t_address,t_uint256)": {
        "encoding": "mapping",
        "key": "t_address",
        "label": "mapping(address => uint256)",
        "numberOfBytes": "32",
        "value": "t_uint256"
      },
      "t_uint256": {
        "encoding": "inplace",
        "label": "uint256",
        "numberOfBytes": "32"
      }
    }
  }
}